:100000005BC081C172C071C070C06FC06EC086C25B
:100010006CC06BC06AC069C068C067C066C065C09C
:1000200064C063C062C061C060C009021200010107
:1000300000801909040000000000000012011001F6
:10004000FF000008C016DC050001010200011603D4
:100050005500530042006500780061006D0070009B
:100060006C006500200363006F00640065006100A0
:100070006E0064006C006900660065002E0063007D
:100080006F006D0004030904E80323046204A5045F
:10009000EC0437058605DA0533069206F606600796
:1000A000D0074708C5084A09D8096E0A0C0BB50BDA
:1000B000670C240DEC0DBF0E11241FBECFEDCDBF7C
:1000C00010E0A0E6B0E0E6EDF7E002C005900D928A
:1000D000AA37B107D9F720E0AAE7B0E001C01D9226
:1000E000AA3AB207E1F748D374C38ACFCF93DF931C
:1000F00080918E00835087FD89C090918B00209164
:100100008A002D3209F080C0883009F07DC0CCE033
:10011000D0E0C91BD109CE56DF4F83EC80937E001F
:100120008AE58093610010927A008881807619F0C8
:10013000CE01F3D260C08A8110928700998191111B
:1001400006C01092880027E830E082E050C0953069
:1001500019F480938F003DC09630A9F59B819130B2
:1001600019F48CE390E004C0923041F48AE290E00C
:1001700090938D0080938C0082E121C09330F1F444
:10018000811108C084E890E090938D0080938C00EA
:1001900084E015C0813041F484E690E090938D00B6
:1001A00080938C0080E20BC0823041F48EE490E0BA
:1001B00090938D0080938C0086E101C080E090E4F4
:1001C00090937A0018C0983079F0993031F4809388
:1001D000910027E830E080E00AC081E09A3009F021
:1001E00080E027E830E003C021E930E081E030938F
:1001F0008D0020938C009F81911104C09E819817DF
:1002000008F4892F8093600010928E008091610025
:1002100084FF4CC0809160008F3F09F447C0C82F15
:10022000893008F0C8E08C1B8093600080917E00CC
:1002300098E8892780937E00CC2361F180918C001F
:1002400090918D0020917A0026FF12C0AFE7B0E0B8
:100250002EE730E020953095280F391F4C2F4A0F9C
:10026000F901EA0FFB1FE491ED934A13F9CF09C09E
:10027000EFE7F0E0DC012C2F2E0F3D9131932E1390
:10028000FCCF01962FEF2C0F820F911D90938D00C4
:1002900080938C006C2F8FE790E031D0CC5FCC3016
:1002A00019F08FEF80936000C093610084E190B3F8
:1002B0009C7031F48150D9F710928F001092890010
:1002C000DF91CF91089585B7826085BF8BB7806439
:1002D0008BBF0895A82FB92F80E090E041E050EA4D
:1002E000609530E009C02D9182279795879510F091
:1002F00084279527305EC8F36F5FA8F30895EADF7F
:100300008D939D930895CF93CFB7CF93DF93C395EC
:10031000839BE9F7839B11C0839B0FC0839B0DC018
:10032000839B0BC0839B09C0839B07C0839B05C035
:10033000839B03C0839B01C081C06F93C0918B00DE
:10034000DD27CE56DF4F2F9320E400C065E0839B6E
:1003500003C02F916F91DECF0F931F934F9345E50D
:100360005F9355E53F933BE014E000B30C702EC063
:100370006A95C9F03150D8F100B30C7001130BC06D
:1003800008942795299320E4555500F46A9569F758
:1003900001E060B30BC0102F66E02695299320E49E
:1003A000555518F3E2CF0FEF60B30000162F4555F7
:1003B00000F0404066E01C700030E2F221F00000E6
:1003C00000B30C7003C000B30C70A9F0011309C096
:1003D0000894279568F200C06A95A9F700E060B319
:1003E000E5CF102F66E0269528F20000ECCF10E450
:1003F0001ABF002717C03B503195C31BD04010E4F3
:100400001ABF0881033CF9F00B34E9F02091890010
:100410001981110F1213EDCF093651F10D3211F080
:10042000013E39F7009390003F915F914F911F91EA
:100430000F912F916F91CAB7C6FD69CFDF91CF9110
:10044000CFBFCF91189520919000222369F310918E
:100450008E00112329F534302AF130938E00209339
:100460008A0010918B003BE0311B30938B001AC047
:1004700000918E000130A4F40AE53091610034FD52
:1004800012C000936100CEE7D0E011C0052710E054
:1004900000C002BB19C0052710E0221F00C01DC00C
:1004A0004AE502C032ED432FC4E1D0E032E011B39F
:1004B0001C60939A02B311BB5CE020E869E420FF62
:1004C000052702BB2795179500C000001C3FF0F6DA
:1004D0006695A8F7A1F720FF052702BB279517957A
:1004E00000001C3FC0F629913A9541F7037F109117
:1004F0008F00110F02BBC651D04011F0109389003C
:1005000010E41ABF086011B3137F402F437F55E0FA
:100510005A95F1F702BB11BB42BB86CF1F920F92D7
:100520000FB60F9211248F939F93EF93FF938CB18B
:10053000982F987F983FD1F087FF05C080937D006A
:1005400010927C0013C090917D00992379F09091D6
:100550007C00923058F4E0917C00F0E0E855FF4FC9
:10056000808380917C008F5F80937C00FF91EF916E
:100570009F918F910F900FBE0F901F90189512B8FA
:1005800087E289B980E98AB986E083B90895BC9A7F
:10059000C49A89E28DB987B3806C87BB08958FB9FF
:1005A00080E48EB9C7988BE1769902C08DB9FCCFF3
:1005B0000895CF93C82FC498892F8061F0DF8C2FC6
:1005C000EEDFC49ACF910895089580937B0008953B
:1005D000BA9A0895C2980895C29A089568E1EDD034
:1005E000E92FF0E0EE0FFF1FE857FF4F8591949140
:1005F0000895E0916200FF27E7FDF095ED59FF4F68
:1006000080810895E0916200FF27E7FDF095ED59A4
:10061000FF4F80810895E0916200E7FD09C0FF2748
:10062000E7FDF095ED59FF4F8081D8DFC2DFD2CFD3
:10063000D3CF2091A8003091A9009091620080381A
:1006400011F031112DC0892F18165CF4E82FFF2707
:10065000E7FDF095ED59FF4F3081321721F08150C1
:10066000F3CF81112DC0E82FFF27E7FDF095ED595D
:10067000FF4F2FEF2083891323C0982F87FF03C0DC
:10068000809362001DC08150E92FFF27E7FDF095A0
:10069000ED59FF4F20812F3F81F39093620010C0EE
:1006A00099301CF08FEF80936200E0916200EF5F61
:1006B000E0936200FF27E7FDF095ED59FF4F20839F
:1006C000AACF60917D00862F807F803BD1F038F4E7
:1006D000803981F0803AA9F08038F1F40BC0803D78
:1006E000A9F018F4803C91F00895803E51F0803FCD
:1006F00089F0089590917C00923071F46F7099DFC9
:1007000009C080917C00823039F404C080917C0063
:10071000813011F410927C000895FC0181818130B8
:1007200021F048F0823069F025C080917B00816023
:1007300080937B001FC090917B009E7F90937B00F5
:100740000895E0916200E7FD0DC0FF27E7FDF095F9
:10075000ED59FF4F80816CE030D0892F90E08359B4
:100760009F4F02C08AE790E090938D0080938C00A9
:1007700081E0089580E0089518BA17BA29DF2CDFC8
:100780002EE088E190E00FB6F894A89581BD0FBEE9
:1007900021BDFDDEF4DE97DD8B9A8AEFA895EFE0B0
:1007A000F7E23197F1F700C000008150B9F78B985C
:1007B0007894A8959BDC85DFFCCF991B79E004C079
:1007C000991F961708F0961B881F7A95C9F7809590
:0607D0000895F894FFCF2C
:1007D600FF5AFFFFFFFFFFFFFFFFFFFFFF436444DA
:0A07E6006545466747614162422005
:00000001FF
