:100000007DC0A3C194C093C092C091C090C0A8C24B
:100010008EC08DC08CC08BC08AC089C088C087C08C
:1000200086C085C084C083C082C00902120001015D
:1000300000801909040000000000000012011001F6
:10004000FF000008C016DC050001010200011603D4
:100050005500530042006500780061006D0070009B
:100060006C006500200363006F00640065006100A0
:100070006E0064006C006900660065002E0063007D
:100080006F006D000403090495009D00A700B100F6
:10009000BB00C600D200DF00EC00FA000901190124
:1000A00029013B014E01620177018D01A401BD01CF
:1000B000D801F40112023102530276029B02C302FC
:1000C000ED021A0349037B03B003E803230462042F
:1000D000A504EC0437058605DA0533069206F60614
:1000E0006007D0074708C5084A09D8096E0A0C0BF3
:1000F000B50B670C240DEC0DBF0EA00F11241FBE15
:10010000CFEDCDBF10E0A0E6B0E0EEE3F7E002C037
:1001100005900D92AE36B107D9F720E0AEE6B0E01B
:1001200001C01D92AE39B207E1F7ADD206C368CF68
:10013000CF93DF9380918100835087FD89C0909198
:100140007E0020917D002D3209F080C0883009F0BA
:100150007DC0CCE0D0E0C91BD109CB57DF4F83EC89
:10016000809371008AE58093610010926E0088810F
:10017000807619F0CE016CD260C08A8110927A002C
:100180009981911106C010927B002AE730E082E04D
:1001900050C0953019F4809382003DC09630A9F587
:1001A0009B81913019F48CE390E004C0923041F4CB
:1001B0008AE290E09093800080937F0082E121C0EA
:1001C0009330F1F4811108C084E890E090938000AE
:1001D00080937F0084E015C0813041F484E690E094
:1001E0009093800080937F0080E20BC0823041F4C6
:1001F0008EE490E09093800080937F0086E101C0C0
:1002000080E090E490936E0018C0983079F09930B7
:1002100031F4809384002AE730E080E00AC081E076
:100220009A3009F080E02AE730E003C024E830E0AB
:1002300081E03093800020937F009F81911104C062
:100240009E81981708F4892F809360001092810096
:100250008091610084FF4CC0809160008F3F09F461
:1002600047C0C82F893008F0C8E08C1B809360001D
:100270008091710098E8892780937100CC2361F107
:1002800080917F009091800020916E0026FF12C027
:10029000A2E7B0E021E730E020953095280F391F24
:1002A0004C2F4A0FF901EA0FFB1FE491ED934A131B
:1002B000F9CF09C0E2E7F0E0DC012C2F2E0F3D91D1
:1002C00031932E13FCCF01962FEF2C0F820F911D2F
:1002D0009093800080937F006C2F82E790E031D074
:1002E000CC5FCC3019F08FEF80936000C093610039
:1002F00084E190B39C7031F48150D9F71092820060
:1003000010927C00DF91CF91089585B7826085BF00
:100310008BB780648BBF0895A82FB92F80E090E041
:1003200041E050EA609530E009C02D918227979511
:10033000879510F084279527305EC8F36F5FA8F388
:100340000895EADF8D939D930895CF93CFB7CF9310
:10035000DF93C395839BE9F7839B11C0839B0FC0F9
:10036000839B0DC0839B0BC0839B09C0839B07C0ED
:10037000839B05C0839B03C0839B01C081C06F9397
:10038000C0917E00DD27CB57DF4F2F9320E400C0C4
:1003900065E0839B03C02F916F91DECF0F931F9376
:1003A0004F9345E55F9355E53F933BE014E000B381
:1003B0000C702EC06A95C9F03150D8F100B30C70A2
:1003C00001130BC008942795299320E4555500F498
:1003D0006A9569F701E060B30BC0102F66E02695BF
:1003E000299320E4555518F3E2CF0FEF60B30000D6
:1003F000162F455500F0404066E01C700030E2F2D8
:1004000021F0000000B30C7003C000B30C70A9F021
:10041000011309C00894279568F200C06A95A9F7EE
:1004200000E060B3E5CF102F66E0269528F20000CB
:10043000ECCF10E41ABF002717C03B503195C31B07
:10044000D04010E41ABF0881033CF9F00B34E9F006
:1004500020917C001981110F1213EDCF093651F153
:100460000D3211F0013E39F7009383003F915F9107
:100470004F911F910F912F916F91CAB7C6FD69CF10
:10048000DF91CF91CFBFCF91189520918300222388
:1004900069F310918100112329F534302AF130934A
:1004A000810020937D0010917E003BE0311B309352
:1004B0007E001AC0009181000130A4F40AE5309159
:1004C000610034FD12C000936100C1E7D0E011C0AB
:1004D000052710E000C002BB19C0052710E0221F4D
:1004E00000C01DC04AE502C032ED432FC4E1D0E098
:1004F00032E011B31C60939A02B311BB5CE020E8B8
:1005000069E420FF052702BB2795179500C000006E
:100510001C3FF0F66695A8F7A1F720FF052702BB60
:100520002795179500001C3FC0F629913A9541F791
:10053000037F10918200110F02BBC651D04011F011
:1005400010937C0010E41ABF086011B3137F402F92
:10055000437F55E05A95F1F702BB11BB42BB86CFF2
:100560001F920F920FB60F9211248F939F93EF93C8
:10057000FF939CB180917000833080F497FF04C09A
:1005800090939B0081E008C0882341F0E82FF0E0C1
:10059000E556FF4F90838F5F80937000FF91EF913E
:1005A0009F918F910F900FBE0F901F90189512B8CA
:1005B00087E289B980E98AB986E083B90895BC9A4F
:1005C000C49A89E28DB987B3806C87BB08958FB9CF
:1005D00080E48EB9C7988BE1769902C08DB9FCCFC3
:1005E0000895CF93C82FC498892F8061F0DF8C2F96
:1005F000EEDFC49ACF91089590E048976AE370E0E7
:1006000075D09927880F991F88579F4FFC018591B6
:1006100094910895CF93C0919C0090919D00803853
:1006200011F0911102C0C29A04C08C2FE5DFD9DF0E
:10063000C298C0936F00CF91089560919B00862F60
:10064000807F803811F0803911F46F70E3CF089506
:10065000FC018181813089F090F0823091F48091A9
:100660006F006CE037D0892F90E08E599F4F9093A8
:10067000800080937F0081E00895C29A02C0C298F2
:10068000089580E0089518BA17BABA9AC29A2EE06F
:1006900088E190E00FB6F894A89581BD0FBE21BD0A
:1006A0008EDF85DF32DE8B9A8AEFA895EFE0F7E2E6
:1006B0003197F1F700C000008150B9F78B9878941A
:1006C000A89536DD809170008330D1F7B6DF1092A7
:1006D0007000F6CF991B79E004C0991F961708F0B7
:1006E000961B881F7A95C9F78095089597FB072E6A
:1006F00016F4009406D077FD08D00BD007FC05D087
:100700003EF4909581959F4F0895709561957F4F28
:100710000895AA1BBB1B51E107C0AA1FBB1FA61748
:10072000B70710F0A61BB70B881F991F5A95A9F79A
:0E07300080959095BC01CD010895F894FFCFFF
:0E073E00FF5A43644465454667476141624285
:00000001FF
