:100000004EC053C052C051C050C04FC04EC04DC072
:100010004CC04BC04AC049C048C047C046C045C09C
:1000200044C043C042C041C040C095009D00A700ED
:10003000B100BB00C600D200DF00EC00FA000901ED
:10004000190129013B014E01620177018D01A401D3
:10005000BD01D801F40112023102530276029B0263
:10006000C302ED021A0349037B03B003E803230430
:100070006204A504EC0437058605DA05330692060A
:10008000F6066007D0074708C5084A09D8096E0A6E
:100090000C0BB50B670C240DEC0DBF0EA00F11243B
:1000A0001FBECFEDCDBF4AD085C0AACF12B887E220
:1000B00089B988E18AB98EE083B908955F9BFECF44
:1000C0008CB1089589E28DB987B3806C87BB0895A0
:1000D0008FB980E48EB9C7988BE1769902C08DB94B
:1000E000FCCF0895CF93C82FC498892F8061F0DF8B
:1000F0008C2FEEDFC49ACF91089590E048976AE381
:1001000070E031D09927880F991F865D9F4FFC01C1
:10011000859194910895CF93DF93D82FCFDFC82F87
:10012000CDDFD03811F0811102C0C29A04C08C2FEB
:10013000E4DFD8DFC298DF91CF91089518BA17BADB
:10014000BC9AC49ABA9ABEDFB1DFB8DF87FFFDCF91
:10015000982F907F903811F09039B9F7682F6F7011
:10016000892FD9DFF2CF97FB072E16F4009406D023
:1001700077FD08D00BD007FC05D03EF49095819513
:100180009F4F0895709561957F4F0895AA1BBB1BE3
:1001900051E107C0AA1FBB1FA617B70710F0A61B87
:1001A000B70B881F991F5A95A9F780959095BC01A8
:0801B000CD010895F894FFCF82
:00000001FF
