:1000000014C019C018C017C016C015C015C013C041
:1000100012C011C010C00FC00EC00DC00CC00BC06C
:100020000AC009C008C007C006C011241FBECFED1A
:10003000CDBF41D054C0E4CF1F920F920FB60F92A4
:1000400011248F939F9388B391E0892788BB9F9158
:100050008F910F900FBE0F901F90189512B88FE0E0
:1000600089B988E18AB98EE083B908955F9BFECF94
:100070008CB1089582E089BF12BE85E083BF0895E8
:1000800089E28DB987B3806C87BB08958FB980E40E
:100090008EB9C7988BE1769902C08DB9FCCF0895CF
:1000A000CF93C82FC198892F8061F0DF8C2FEEDFAE
:1000B000C19ACF91089518BA17BAB99AC19AB89A45
:1000C000DFDF11E0C0E0D0E0CE01EADF2196C1150C
:1000D00080E1D807C9F788B3812788BBF3CFF894AC
:0200E000FFCF50
:00000001FF
