:1000000014C019C018C017C016C015C014C013C042
:1000100012C011C010C00FC00EC00DC00CC00BC06C
:100020000AC009C008C007C006C011241FBECFED1A
:10003000CDBF48D05CC0E4CF12B887E289B988E16F
:100040008AB98EE083B908955F9BFECF8CB1089585
:1000500089E28DB987B3806C87BB08958FB980E43E
:100060008EB9C7988BE1769902C08DB9FCCF0895FF
:10007000CF93C82FC498892F8061F0DF8C2FEEDFDB
:10008000C49ACF91089590E025E0880F991F2A9592
:10009000E1F70895CF93DF93D82FD6DFC82FD4DFB1
:1000A000D03811F0811102C0C29809C08C2F90E0A5
:1000B00035E0880F991F3A95E1F7DADFC29ADF91B0
:1000C000CF91089518BA17BABC9AC49ABA9AC0DFE9
:1000D000B3DFBADF87FFFDCF982F907F903811F004
:1000E0009039B9F7682F6F70892FD4DFF2CFF89469
:0200F000FFCF40
:00000001FF
