:100000007DC0A3C194C093C092C091C090C0A8C24B
:100010008EC08DC08CC08BC08AC089C088C087C08C
:1000200086C085C084C083C082C00902120001015D
:1000300000801909040000000000000012011001F6
:10004000FF000008C016DC050001010200011603D4
:100050005500530042006500780061006D0070009B
:100060006C006500200363006F00640065006100A0
:100070006E0064006C006900660065002E0063007D
:100080006F006D000403090495009D00A700B100F6
:10009000BB00C600D200DF00EC00FA000901190124
:1000A00029013B014E01620177018D01A401BD01CF
:1000B000D801F40112023102530276029B02C302FC
:1000C000ED021A0349037B03B003E803230462042F
:1000D000A504EC0437058605DA0533069206F60614
:1000E0006007D0074708C5084A09D8096E0A0C0BF3
:1000F000B50B670C240DEC0DBF0EA00F11241FBE15
:10010000CFEDCDBF10E0A0E6B0E0E0E1F7E002C047
:1001100005900D92A236B107D9F720E0A2E6B0E033
:1001200001C01D92A139B207E1F7A3D2EFC268CF97
:10013000CF93DF9380917400835087FD89C09091A5
:100140007100209170002D3209F080C0883009F0D4
:100150007DC0CCE0D0E0C91BD109C858DF4F83EC8B
:10016000809364008AE58093610010926200888128
:10017000807619F0CE0168D260C08A8110926D003D
:100180009981911106C010926E002DE630E082E058
:1001900050C0953019F4809375003DC09630A9F594
:1001A0009B81913019F48CE390E004C0923041F4CB
:1001B0008AE290E0909373008093720082E121C004
:1001C0009330F1F4811108C084E890E090937300BB
:1001D0008093720084E015C0813041F484E690E0A1
:1001E000909373008093720080E20BC0823041F4E0
:1001F0008EE490E0909373008093720086E101C0DA
:1002000080E090E49093620018C0983079F09930C3
:1002100031F4809377002DE630E080E00AC081E081
:100220009A3009F080E02DE630E003C027E730E0A7
:1002300081E030937300209372009F81911104C07C
:100240009E81981708F4892F8093600010927400A3
:100250008091610084FF4CC0809160008F3F09F461
:1002600047C0C82F893008F0C8E08C1B809360001D
:100270008091640098E8892780936400CC2361F121
:1002800080917200909173002091620026FF12C04D
:10029000A5E6B0E024E630E020953095280F391F20
:1002A0004C2F4A0FF901EA0FFB1FE491ED934A131B
:1002B000F9CF09C0E5E6F0E0DC012C2F2E0F3D91CF
:1002C00031932E13FCCF01962FEF2C0F820F911D2F
:1002D00090937300809372006C2F85E690E031D08C
:1002E000CC5FCC3019F08FEF80936000C093610039
:1002F00084E190B39C7031F48150D9F7109275006D
:1003000010926F00DF91CF91089585B7826085BF0D
:100310008BB780648BBF0895A82FB92F80E090E041
:1003200041E050EA609530E009C02D918227979511
:10033000879510F084279527305EC8F36F5FA8F388
:100340000895EADF8D939D930895CF93CFB7CF9310
:10035000DF93C395839BE9F7839B11C0839B0FC0F9
:10036000839B0DC0839B0BC0839B09C0839B07C0ED
:10037000839B05C0839B03C0839B01C081C06F9397
:10038000C0917100DD27C858DF4F2F9320E400C0D3
:1003900065E0839B03C02F916F91DECF0F931F9376
:1003A0004F9345E55F9355E53F933BE014E000B381
:1003B0000C702EC06A95C9F03150D8F100B30C70A2
:1003C00001130BC008942795299320E4555500F498
:1003D0006A9569F701E060B30BC0102F66E02695BF
:1003E000299320E4555518F3E2CF0FEF60B30000D6
:1003F000162F455500F0404066E01C700030E2F2D8
:1004000021F0000000B30C7003C000B30C70A9F021
:10041000011309C00894279568F200C06A95A9F7EE
:1004200000E060B3E5CF102F66E0269528F20000CB
:10043000ECCF10E41ABF002717C03B503195C31B07
:10044000D04010E41ABF0881033CF9F00B34E9F006
:1004500020916F001981110F1213EDCF093651F160
:100460000D3211F0013E39F7009376003F915F9114
:100470004F911F910F912F916F91CAB7C6FD69CF10
:10048000DF91CF91CFBFCF91189520917600222395
:1004900069F310917400112329F534302AF1309357
:1004A000740020937000109171003BE0311B309379
:1004B00071001AC0009174000130A4F40AE5309173
:1004C000610034FD12C000936100C4E6D0E011C0A9
:1004D000052710E000C002BB19C0052710E0221F4D
:1004E00000C01DC04AE502C032ED432FC4E1D0E098
:1004F00032E011B31C60939A02B311BB5CE020E8B8
:1005000069E420FF052702BB2795179500C000006E
:100510001C3FF0F66695A8F7A1F720FF052702BB60
:100520002795179500001C3FC0F629913A9541F791
:10053000037F10917500110F02BBC651D04011F01E
:1005400010936F0010E41ABF086011B3137F402F9F
:10055000437F55E05A95F1F702BB11BB42BB86CFF2
:100560001F920F920FB60F9211248F939F93EF93C8
:10057000FF939CB180916300833080F497FF04C0A7
:1005800090938E0081E008C0882341F0E82FF0E0CE
:10059000E257FF4F90838F5F80936300FF91EF914D
:1005A0009F918F910F900FBE0F901F90189512B8CA
:1005B00087E289B980E98AB986E083B90895BC9A4F
:1005C000C49A89E28DB987B3806C87BB08958FB9CF
:1005D00080E48EB9C7988BE1769902C08DB9FCCFC3
:1005E0000895CF93C82FC498892F8061F0DF8C2F96
:1005F000EEDFC49ACF91089590E048976AE370E0E7
:100600005ED09927880F991F88579F4FFC018591CD
:100610009491089590918F0020919000803811F06E
:10062000211102C0C29A0895892FE6DFDADFC2984D
:10063000089560918E00862F807F803811F0803978
:1006400011F46F70E7CF0895FC018181813059F07A
:1006500060F0823061F48EE890E0909373008093B4
:10066000720083E00895C29A02C0C298089580E0A3
:10067000089518BA17BABA9A2EE088E190E00FB63A
:10068000F894A89581BD0FBE21BD99DF90DF3DDEB6
:100690008B9A8AEFA895EFE0F7E23197F1F700C067
:1006A00000008150B9F78B987894A89541DD80912E
:1006B00063008330D1F7BDDF10926300F6CF97FB64
:1006C000072E16F4009406D077FD08D00BD007FC57
:1006D00005D03EF4909581959F4F08957095619552
:1006E0007F4F0895AA1BBB1B51E107C0AA1FBB1F68
:1006F000A617B70710F0A61BB70B881F991F5A95AE
:10070000A9F780959095BC01CD010895F894FFCF8D
:02071000FF5A8E
:00000001FF
