:100000007DC0A3C194C093C092C091C090C08FC066
:100010008EC08DC08CC08BC08AC089C088C087C08C
:1000200086C085C084C083C082C00902120001015D
:1000300000801909040000000000000012011001F6
:10004000FF000008C016DC050001010200011603D4
:100050005500530042006500780061006D0070009B
:100060006C006500200363006F00640065006100A0
:100070006E0064006C006900660065002E0063007D
:100080006F006D000403090495009D00A700B100F6
:10009000BB00C600D200DF00EC00FA000901190124
:1000A00029013B014E01620177018D01A401BD01CF
:1000B000D801F40112023102530276029B02C302FC
:1000C000ED021A0349037B03B003E803230462042F
:1000D000A504EC0437058605DA0533069206F60614
:1000E0006007D0074708C5084A09D8096E0A0C0BF3
:1000F000B50B670C240DEC0DBF0EA00F11241FBE15
:10010000CFEDCDBF10E0A0E6B0E0E2EAF6E002C03D
:1001100005900D92A237B107D9F720E0A2E7B0E031
:1001200001C01D92AD39B207E1F777D2B8C268CFEE
:10013000CF93DF9380918300835087FD89C0909196
:10014000800020917F002D3209F080C0883009F0B6
:100150007DC0CCE0D0E0C91BD109C957DF4F83EC8B
:10016000809373008AE58093610010927200888109
:10017000807619F0CE013CD260C08A8110927C005A
:100180009981911106C010927D002CE730E082E049
:1001900050C0953019F4809384003DC09630A9F585
:1001A0009B81913019F48CE390E004C0923041F4CB
:1001B0008AE290E0909382008093810082E121C0E6
:1001C0009330F1F4811108C084E890E090938200AC
:1001D0008093810084E015C0813041F484E690E092
:1001E000909382008093810080E20BC0823041F4C2
:1001F0008EE490E0909382008093810086E101C0BC
:1002000080E090E49093720018C0983079F09930B3
:1002100031F4809386002CE730E080E00AC081E072
:100220009A3009F080E02CE730E003C026E830E0A7
:1002300081E030938200209381009F81911104C05E
:100240009E81981708F4892F809360001092830094
:100250008091610084FF4CC0809160008F3F09F461
:1002600047C0C82F893008F0C8E08C1B809360001D
:100270008091730098E8892780937300CC2361F103
:1002800080918100909182002091720026FF12C01F
:10029000A4E7B0E023E730E020953095280F391F20
:1002A0004C2F4A0FF901EA0FFB1FE491ED934A131B
:1002B000F9CF09C0E4E7F0E0DC012C2F2E0F3D91CF
:1002C00031932E13FCCF01962FEF2C0F820F911D2F
:1002D00090938200809381006C2F84E790E031D06E
:1002E000CC5FCC3019F08FEF80936000C093610039
:1002F00084E190B39C7031F48150D9F7109284005E
:1003000010927E00DF91CF91089585B7826085BFFE
:100310008BB780648BBF0895A82FB92F80E090E041
:1003200041E050EA609530E009C02D918227979511
:10033000879510F084279527305EC8F36F5FA8F388
:100340000895EADF8D939D930895CF93CFB7CF9310
:10035000DF93C395839BE9F7839B11C0839B0FC0F9
:10036000839B0DC0839B0BC0839B09C0839B07C0ED
:10037000839B05C0839B03C0839B01C081C06F9397
:10038000C0918000DD27C957DF4F2F9320E400C0C4
:1003900065E0839B03C02F916F91DECF0F931F9376
:1003A0004F9345E55F9355E53F933BE014E000B381
:1003B0000C702EC06A95C9F03150D8F100B30C70A2
:1003C00001130BC008942795299320E4555500F498
:1003D0006A9569F701E060B30BC0102F66E02695BF
:1003E000299320E4555518F3E2CF0FEF60B30000D6
:1003F000162F455500F0404066E01C700030E2F2D8
:1004000021F0000000B30C7003C000B30C70A9F021
:10041000011309C00894279568F200C06A95A9F7EE
:1004200000E060B3E5CF102F66E0269528F20000CB
:10043000ECCF10E41ABF002717C03B503195C31B07
:10044000D04010E41ABF0881033CF9F00B34E9F006
:1004500020917E001981110F1213EDCF093651F151
:100460000D3211F0013E39F7009385003F915F9105
:100470004F911F910F912F916F91CAB7C6FD69CF10
:10048000DF91CF91CFBFCF91189520918500222386
:1004900069F310918300112329F534302AF1309348
:1004A000830020937F00109180003BE0311B30934C
:1004B00080001AC0009183000130A4F40AE5309155
:1004C000610034FD12C000936100C3E7D0E011C0A9
:1004D000052710E000C002BB19C0052710E0221F4D
:1004E00000C01DC04AE502C032ED432FC4E1D0E098
:1004F00032E011B31C60939A02B311BB5CE020E8B8
:1005000069E420FF052702BB2795179500C000006E
:100510001C3FF0F66695A8F7A1F720FF052702BB60
:100520002795179500001C3FC0F629913A9541F791
:10053000037F10918400110F02BBC651D04011F00F
:1005400010937E0010E41ABF086011B3137F402F90
:10055000437F55E05A95F1F702BB11BB42BB86CFF2
:1005600012B887E289B988E18AB98EE083B9089523
:100570005F9BFECF8CB1089589E28DB987B3806C03
:1005800087BB08958FB980E48EB9C7988BE17699BF
:1005900002C08DB9FCCF0895CF93C82FC498892F7E
:1005A0008061F0DF8C2FEEDFC49ACF91089590E048
:1005B00048976AE370E04CD09927880F991F8857B5
:1005C0009F4FFC01859194910895CF93DF93D82F8D
:1005D000CFDFC82FCDDFD03811F0811102C0C29A11
:1005E00004C08C2FE4DFD8DFC298DF91CF9108954B
:1005F000FC018181813059F060F0823061F482E643
:1006000090E0909382008093810080E10895C29AE7
:1006100002C0C298089580E00895BA9A2EE088E159
:1006200090E00FB6F894A89581BD0FBE21BD6DDE98
:100630008B9A8AEFA895EFE0F7E23197F1F700C0C7
:1006400000008150B9F78B987894A89571DDFDCFA3
:1006500097FB072E16F4009406D077FD08D00BD038
:1006600007FC05D03EF4909581959F4F08957095B5
:1006700061957F4F0895AA1BBB1B51E107C0AA1FBC
:10068000BB1FA617B70710F0A61BB70B881F991F33
:100690005A95A9F780959095BC01CD010895F894DD
:0206A000FFCF8A
:1006A200FF5A48656C6C6F2C204272656368742136
:0206B200000046
:00000001FF
