:1000000014C019C018C017C016C015C014C013C042
:1000100012C011C010C00FC00EC00DC00CC00BC06C
:100020000AC009C008C007C006C011241FBECFED1A
:10003000CDBF3DD04BC0E4CF12B887E289B988E18B
:100040008AB98EE083B908955F9BFECF8CB1089585
:1000500089E28DB987B3806C87BB08958FB980E43E
:100060008EB9C7988BE1769902C08DB9FCCF0895FF
:10007000CF93C82FC498892F8061F0DF8C2FEEDFDB
:10008000C49ACF91089590E025E0880F991F2A9592
:10009000E1F70895CF93D8DFC82FD6DF8C2F90E0FB
:1000A00035E0880F991F3A95E1F7CF91E1CF18BA63
:1000B00017BABC9AC49ABA9ACBDFBEDFC4E0C4DFD9
:1000C00087FFFDCF88B38C2788BBF9CFF894FFCF8B
:00000001FF
