:100000005BC081C172C071C070C06FC06EC086C25B
:100010006CC06BC06AC069C068C067C066C065C09C
:1000200064C063C062C061C060C009021200010107
:1000300000801909040000000000000012011001F6
:10004000FF000008C016DC050001010200011603D4
:100050005500530042006500780061006D0070009B
:100060006C006500200363006F00640065006100A0
:100070006E0064006C006900660065002E0063007D
:100080006F006D0004030904E80323046204A5045F
:10009000EC0437058605DA0533069206F606600796
:1000A000D0074708C5084A09D8096E0A0C0BB50BDA
:1000B000670C240DEC0DBF0E11241FBECFEDCDBF7C
:1000C00010E0A0E6B0E0EEE7F7E002C005900D9288
:1000D000AA37B107D9F720E0AAE7B0E001C01D9226
:1000E000A93AB207E1F71CD348C38ACFCF93DF9375
:1000F00080918D00835087FD89C090918A00209166
:1001000089002D3209F080C0883009F07DC0CCE034
:10011000D0E0C91BD109CF56DF4F83EC80937D001F
:100120008AE58093610010927A008881807619F0C8
:10013000CE01CFD260C08A81109286009981911140
:1001400006C01092870026E830E082E050C095306B
:1001500019F480938E003DC09630A9F59B819130B3
:1001600019F48CE390E004C0923041F48AE290E00C
:1001700090938C0080938B0082E121C09330F1F446
:10018000811108C084E890E090938C0080938B00EC
:1001900084E015C0813041F484E690E090938C00B7
:1001A00080938B0080E20BC0823041F48EE490E0BB
:1001B00090938C0080938B0086E101C080E090E4F6
:1001C00090937A0018C0983079F0993031F4809388
:1001D000900026E830E080E00AC081E09A3009F023
:1001E00080E026E830E003C020E930E081E0309391
:1001F0008C0020938B009F81911104C09E819817E1
:1002000008F4892F8093600010928D008091610026
:1002100084FF4CC0809160008F3F09F447C0C82F15
:10022000893008F0C8E08C1B8093600080917D00CD
:1002300098E8892780937D00CC2361F180918B0021
:1002400090918C0020917A0026FF12C0AEE7B0E0BA
:100250002DE730E020953095280F391F4C2F4A0F9D
:10026000F901EA0FFB1FE491ED934A13F9CF09C09E
:10027000EEE7F0E0DC012C2F2E0F3D9131932E1391
:10028000FCCF01962FEF2C0F820F911D90938C00C5
:1002900080938B006C2F8EE790E031D0CC5FCC3018
:1002A00019F08FEF80936000C093610084E190B3F8
:1002B0009C7031F48150D9F710928E001092880012
:1002C000DF91CF91089585B7826085BF8BB7806439
:1002D0008BBF0895A82FB92F80E090E041E050EA4D
:1002E000609530E009C02D9182279795879510F091
:1002F00084279527305EC8F36F5FA8F30895EADF7F
:100300008D939D930895CF93CFB7CF93DF93C395EC
:10031000839BE9F7839B11C0839B0FC0839B0DC018
:10032000839B0BC0839B09C0839B07C0839B05C035
:10033000839B03C0839B01C081C06F93C0918A00DF
:10034000DD27CF56DF4F2F9320E400C065E0839B6D
:1003500003C02F916F91DECF0F931F934F9345E50D
:100360005F9355E53F933BE014E000B30C702EC063
:100370006A95C9F03150D8F100B30C7001130BC06D
:1003800008942795299320E4555500F46A9569F758
:1003900001E060B30BC0102F66E02695299320E49E
:1003A000555518F3E2CF0FEF60B30000162F4555F7
:1003B00000F0404066E01C700030E2F221F00000E6
:1003C00000B30C7003C000B30C70A9F0011309C096
:1003D0000894279568F200C06A95A9F700E060B319
:1003E000E5CF102F66E0269528F20000ECCF10E450
:1003F0001ABF002717C03B503195C31BD04010E4F3
:100400001ABF0881033CF9F00B34E9F02091880011
:100410001981110F1213EDCF093651F10D3211F080
:10042000013E39F700938F003F915F914F911F91EB
:100430000F912F916F91CAB7C6FD69CFDF91CF9110
:10044000CFBFCF91189520918F00222369F310918F
:100450008D00112329F534302AF130938D0020933B
:10046000890010918A003BE0311B30938A001AC04A
:1004700000918D000130A4F40AE53091610034FD53
:1004800012C000936100CDE7D0E011C0052710E055
:1004900000C002BB19C0052710E0221F00C01DC00C
:1004A0004AE502C032ED432FC4E1D0E032E011B39F
:1004B0001C60939A02B311BB5CE020E869E420FF62
:1004C000052702BB2795179500C000001C3FF0F6DA
:1004D0006695A8F7A1F720FF052702BB279517957A
:1004E00000001C3FC0F629913A9541F7037F109117
:1004F0008E00110F02BBC651D04011F0109388003E
:1005000010E41ABF086011B3137F402F437F55E0FA
:100510005A95F1F702BB11BB42BB86CF1F920F92D7
:100520000FB60F9211248F939F93EF93FF938CB18B
:10053000982F907F903FA1F087FF03C080937C00AD
:100540000FC090917C00992359F0E0917B00F0E07E
:10055000E955FF4F808380917B008F5F80937B0004
:10056000FF91EF919F918F910F900FBE0F901F9071
:10057000189512B887E289B980E98AB986E083B90B
:100580000895BC9AC49A89E28DB987B3806C87BB01
:1005900008958FB980E48EB9C7988BE1769902C02F
:1005A0008DB9FCCF0895CF93C82FC498892F80614F
:1005B000F0DF8C2FEEDFC49ACF91089568E1D1D09F
:1005C000E92FF0E0EE0FFF1FE857FF4F8591949160
:1005D0000895E0916200E7FD0AC0FF27E7FDF0956E
:1005E000ED59FF4F8081EADFDEDFC2980895C29A9D
:1005F00008952091A7003091A80090916200803862
:1006000011F031112DC0892F18165CF4E82FFF2747
:10061000E7FDF095ED59FF4F3081321721F0815001
:10062000F3CF81112DC0E82FFF27E7FDF095ED599D
:10063000FF4F2FEF2083891323C0982F87FF03C01C
:10064000809362001DC08150E92FFF27E7FDF095E0
:10065000ED59FF4F20812F3F81F39093620010C02E
:1006600099301CF08FEF80936200E0916200EF5FA1
:10067000E0936200FF27E7FDF095ED59FF4F2083DF
:10068000A8CF60917C00862F807F803BB1F038F44A
:10069000803961F0803A89F08038D1F407C0803D1C
:1006A00089F0803E51F0803C99F40CC090917B0021
:1006B000923071F46F709DDF09C080917B008230B1
:1006C00039F404C080917B00813011F410927B00DA
:1006D0000895FC018181813021F028F0823029F0D9
:1006E0001DC0C29A1BC0C2980895E0916200E7FD48
:1006F0000DC0FF27E7FDF095ED59FF4F80816CE0BD
:1007000030D0892F90E083599F4F02C08AE790E054
:1007100090938C0080938B0081E0089580E0089591
:1007200018BA17BABA9AC29A2EE088E190E00FB6CA
:10073000F894A89581BD0FBE21BD23DF1ADFC3DD6C
:100740008B9A8AEFA895EFE0F7E23197F1F700C0B6
:1007500000008150B9F78B987894A895C7DC91DF99
:10076000FCCF991B79E004C0991F961708F0961BDF
:0E077000881F7A95C9F780950895F894FFCFF9
:10077E00FF5AFFFFFFFFFFFFFFFFFFFFFF43644432
:0A078E00654546674761416242205D
:00000001FF
